:020000040000FA
:040000005CEF3FF082
:107EB800000177EF3FF0410EC26EC00EC16E9D0EFD
:107EC800C06EC282C2B26BEF3FF06DEF3FF066EF5B
:107ED8003FF0C450046E036AC3500324016E000EC1
:107EE8000420026E12009280959095929594959632
:107EF8005FEC3FF001C006F002C007F006C001F0D9
:107F080007C002F094EC3FF0410E056EEE0EE82E2D
:107F1800FED7052EFCD700D07CEF3FF000EF00F035
:107F280001500210D8B49BEF3FF09DEF3FF0ACEF4B
:107F38003FF0025007E1190E015CD8B0A6EF3FF000
:107F4800A8EF3FF0ACEF3FF0000E836EFFEF3FF07D
:107F5800025009E11A0E015CD8A0B5EF3FF0B7EF67
:107F68003FF0C3EF3FF00204D8B0BDEF3FF0BFEFE2
:107F78003FF0C3EF3FF0010E836EFFEF3FF0020EBC
:107F8800025CD8B0CAEF3FF0CCEF3FF0DAEF3FF039
:107F98000104010E0258D8A0D4EF3FF0D6EF3FF00D
:107FA800DAEF3FF0030E836EFFEF3FF00104020E9D
:107FB8000258D8A0E2EF3FF0E4EF3FF0F1EF3FF0D6
:107FC800030E025CD8B0EBEF3FF0EDEF3FF0F1EFBE
:107FD8003FF0070E836EFFEF3FF00104030E0258D7
:107FE800D8A0F9EF3FF0FBEF3FF0FFEF3FF00F0EA7
:087FF800836EFFEF3FF0120061
:020000040020DA
:08000000FFFFFFFFFFFFFFFF00
:020000040030CA
:0E00000000051F1FFF8385FF0FC00FE00F409C
:00000001FF
