:020000040000FA
:0400000003EF00F01A
:020004000000FA
:0A000600000E956EF70E936E8196C2
:100010004EEC00F0600E066E836E81BC3EEC00F08C
:1000200081BE15EF00F00DEF00F046EC00F0060485
:1000300071EC00F0066E836ED8A415EF00F0818697
:100040002DEC00F081962DEC00F02DEC00F02DEC65
:1000500000F02DEC00F01FEF00F06F0E056EFA0EB1
:10006000046E81BC07EF00F081BE07EF00F0042EA4
:1000700031EF00F0052E2FEF00F0120006500A0FAE
:100080000700066E836E4EEC00F012003B0E026E0F
:100090004EEC00F0022E48EF00F01200FA0E016E56
:1000A00056EC00F0012E50EF00F01200FD0E006E35
:1000B0000000000000000000000000000000000040
:1000C00000000000000000000000002E58EF00F0CB
:1000D00012003E0E036E56EC00F0032E6BEF00F0A4
:1000E0001200006E0F0B016E090E0164D8A20CD035
:1000F000D8929F0E0064D8A003D00050D890120070
:10010000600E005CD8801200060E005ED882F1D727
:00000001FF
